{
  "transactions": [
    {
      "hash": "0x467d7fa0d03a95d23258e0ef1e34095a64b5c48cc99ba94f843a3c16113ebc33",
      "transactionType": "CREATE",
      "contractName": "MerchantRegistry",
      "contractAddress": "0x2bd8abeb2f5598f8477560c70c742affc22912de",
      "function": null,
      "arguments": null,
      "transaction": {
        "from": "0x3b0eb4bd67d7243a4dbe684e9c922d9c3919afbf",
        "gas": "0xf9ce7bad",
        "value": "0x0",
        "input": "0x6080806040523461001657610d3c908161001b8239f35b5f80fdfe60806040908082526004361015610014575f80fd5b5f3560e01c9081630ce742e9146106e657508063200030221461066b5780632f389922146105765780632f4fb034146104ff57806358fd6aec146101db5780635c36901c146101ad5780637f6164881461018f5780639d9ff5dc1461012c578063a48763b4146100f3578063cf947c88146100ca5763d6e82e3a14610097575f80fd5b346100c65760203660031901126100c6576020906004355f525f825260018060a01b03815f2054169051908152f35b5f80fd5b50346100c65760203660031901126100c6576020906004355f5260038252805f20549051908152f35b50346100c65760203660031901126100c657600435906002548210156100c65761011e602092610afc565b91905490519160031b1c8152f35b50346100c657806003193601126100c65761014b602435600435610c33565b908051918291602090602080850191818652845180935285019301915f5b82811061017857505050500390f35b835185528695509381019392810192600101610169565b50346100c6575f3660031901126100c6576020906002549051908152f35b50346100c65760203660031901126100c6576020906004355f526001825260ff815f20541690519015158152f35b50346100c6576101ea36610956565b929084156104ee575f8581526020819052869020546001600160a01b03166104dd57845f525f602052855f20336bffffffffffffffffffffffff60a01b8254161790558551610238816109de565b60018152610247368585610bb4565b906020810191825261025a368785610bb4565b888201908152426060830152875f526001602052885f20928251151560ff801986541691161784555180519067ffffffffffffffff82116103e7576102af826102a660018801546109a6565b60018801610b45565b602090601f831160011461046f576102de92915f91836103fb575b50508160011b915f199060031b1c19161790565b60018401555b518051600284019167ffffffffffffffff82116103e75761030f8261030985546109a6565b85610b45565b602090601f831160011461040657826003959360609593610344935f926103fb5750508160011b915f199060031b1c19161790565b90555b015191015560025493680100000000000000008510156103e7576103cb6103d9936103998760017f436e347c0cc090393751f40276457d92bde6682f11111701ad943a6ec006f97b9901600255610afc565b81549060031b908a821b915f19901b1916179055875f52600360205242895f2055885195606087526060870191610b94565b918483036020860152610b94565b9342908201528033940390a3005b634e487b7160e01b5f52604160045260245ffd5b015190505f806102ca565b90601f19831691845f5260205f20925f5b8181106104575750926001928592600398966060989610610440575b505050811b019055610347565b01515f1983891b60f8161c191690555f8080610433565b92936020600181928786015181550195019301610417565b9190600186015f5260205f20905f935b601f19841685106104c2576001945083601f198116106104aa575b505050811b0160018401556102e4565b01515f1960f88460031b161c191690555f808061049a565b8181015183556020948501946001909301929091019061047f565b8551633be417fd60e01b8152600490fd5b8551637ccfccc960e11b8152600490fd5b50346100c65760203660031901126100c65760043590815f525f60205260018060a01b03815f205416330361056657815f5260016020525f2060ff1981541690557fd1a18df49d21cd90d18ed209fd52967f73ade23c017ae318128c98966b29200e5f80a2005b516314db440560e31b8152600490fd5b50346100c657602090816003193601126100c6576004355f6060835161059b816109de565b82815285810182905284810182905201525f818152808452829020546001600160a01b03161561065a575f5260018252805f209061064f8151926105de846109de565b60ff8154161515845261063c6105f660018301610a1c565b938686019485526080600361060d60028601610a1c565b94838901958652015495606088019687528251988998818a5251151590890152519187015260a0860190610abe565b9051848203601f19016060860152610abe565b905160808301520390f35b8151636decfb5f60e11b8152600490fd5b50346100c65760203660031901126100c6576004355f526001602052805f2060ff815416906106dc61069f60018301610a1c565b9360036106ae60028501610a1c565b930154926106cf825196879615158752608060208801526080870190610abe565b9185830390860152610abe565b9060608301520390f35b82346100c6576106f536610956565b91939492855f526020965f885260018060a01b03855f20541633036109195750855f526001808852845f209080820167ffffffffffffffff928389116103e7576107498961074384546109a6565b84610b45565b5f9189601f81116001146108b25780610779916002955f916108a7575b508160011b915f199060031b1c19161790565b90555b019185116103e7576107928561074384546109a6565b5f90601f861160011461081c575084927fea73b2e6e4de57e24b9a5689cdf3ceea706929b4aa666b0819a1d5c710bd3c99989994926107ec8561080c986107ff955f9161081157508160011b915f199060031b1c19161790565b90555b8651978789988952880191610b94565b9285840390860152610b94565b0390a2005b90508601358e610766565b90601f19861690835f528a5f20915f5b8181106108925750928795927fea73b2e6e4de57e24b9a5689cdf3ceea706929b4aa666b0819a1d5c710bd3c999b9c97959261080c996107ff9610610879575b505085811b0190556107ef565b8601355f19600389901b60f8161c191690558c8061086c565b87830135845592840192918c01918c0161082c565b90508801358f610766565b505f8181528c812090938b601f1981168f5b888289106108ff57505060029650106108e6575b5050838a811b01905561077c565b8701355f1960038d901b60f8161c191690558c806108d8565b8b85013586559781019790940193928301928e92506108c4565b6314db440560e31b8152600490fd5b9181601f840112156100c65782359167ffffffffffffffff83116100c657602083818601950101116100c657565b9060606003198301126100c6576004359167ffffffffffffffff916024358381116100c6578261098891600401610928565b939093926044359182116100c6576109a291600401610928565b9091565b90600182811c921680156109d4575b60208310146109c057565b634e487b7160e01b5f52602260045260245ffd5b91607f16916109b5565b6080810190811067ffffffffffffffff8211176103e757604052565b90601f8019910116810190811067ffffffffffffffff8211176103e757604052565b9060405191825f8254610a2e816109a6565b908184526020946001916001811690815f14610a9c5750600114610a5e575b505050610a5c925003836109fa565b565b5f90815285812095935091905b818310610a84575050610a5c93508201015f8080610a4d565b85548884018501529485019487945091830191610a6b565b92505050610a5c94925060ff191682840152151560051b8201015f8080610a4d565b91908251928382525f5b848110610ae8575050825f602080949584010152601f8019910116010190565b602081830181015184830182015201610ac8565b600254811015610b315760025f527f405787fa12a823e0f2b7631cc41b3ba8828b3321ca811111fa75cd3aa3bb5ace01905f90565b634e487b7160e01b5f52603260045260245ffd5b601f8211610b5257505050565b5f5260205f20906020601f840160051c83019310610b8a575b601f0160051c01905b818110610b7f575050565b5f8155600101610b74565b9091508190610b6b565b908060209392818452848401375f828201840152601f01601f1916010190565b92919267ffffffffffffffff82116103e75760405191610bde601f8201601f1916602001846109fa565b8294818452818301116100c6578281602093845f960137010152565b67ffffffffffffffff81116103e75760051b60200190565b91908203918211610c1f57565b634e487b7160e01b5f52601160045260245ffd5b906002549081831015610cdc57820190818311610c1f57808211610cd4575b50610c5d8282610c12565b91610c80610c6a84610bfa565b93610c7860405195866109fa565b808552610bfa565b602090601f19013685830137815b838110610c9c575050505090565b610ca581610afc565b91905491610cb38583610c12565b908751821015610b3157600193859160031b1c9160051b8801015201610c8e565b90505f610c52565b5050506040516020810181811067ffffffffffffffff8211176103e7576040525f81525f3681379056fea2646970667358221220df425c26c04d93b57091272d2ac971586513444acefc3cc1749a79563f47e55864736f6c63430008180033",
        "nonce": "0x1",
        "chainId": "0x138b"
      },
      "additionalContracts": [],
      "isFixedGasLimit": false
    },
    {
      "hash": "0x3d7bb3ab0d3d16ede4a0bed20fb4d72422581d3ec9631e30e65ac05118044290",
      "transactionType": "CREATE",
      "contractName": "SalesEventLog",
      "contractAddress": "0x7007508b1420e719d7a7a69b98765f60c7aae759",
      "function": null,
      "arguments": [
        "0x2bd8AbEB2F5598f8477560C70c742aFfc22912de"
      ],
      "transaction": {
        "from": "0x3b0eb4bd67d7243a4dbe684e9c922d9c3919afbf",
        "gas": "0x101e5cd89",
        "value": "0x0",
        "input": "0x60a03461007857601f610e3b38819003918201601f19168301916001600160401b0383118484101761007c5780849260209460405283398101031261007857516001600160a01b038116810361007857608052604051610daa9081610091823960805181818161045e015281816107f40152610bae0152f35b5f80fd5b634e487b7160e01b5f52604160045260245ffdfe6080604090808252600480361015610015575f80fd5b5f3560e01c91826306433b1b14610b9c575081631e57841d146107425781631f24fd93146106ab578163522028d11461040c5781636c414a39146103eb578163731a06a314610358578163b438b16814610331578163c2660914146102d3578163cd4c4c0c146102b5578163dc41a992146100b8575063f6e8eb2014610099575f80fd5b346100b4575f3660031901126100b457602090516103848152f35b5f80fd5b9050346100b45760609060606003193601126100b457803591602493604435926100e0610d4a565b945f965f955f955f936024355b838111156101dd575050508888525050602086018581529480156101d5576101159088610d00565b915b8684019283528715801595906101cd576064810290808204606414901517156101ba578861014491610d00565b945b60608801958652156101ad5760648202918083046064149015171561019a575060a09661017291610d00565b935b608086019485528251955186525160208601525190840152516060830152516080820152f35b601190634e487b7160e01b5f525260245ffd5b505060a095505f93610174565b601182634e487b7160e01b5f525260245ffd5b505f94610146565b505f91610117565b815f9c9b9a999c5260205f8152885f20825f528152885f209089519161020283610c24565b805492838152600182015492810192835260036002830154928d8301938452015493608060ff92838a820197818116895260081c161515918291015261026f575b50505050509a9798999a5f19811461025d576001016100ed565b84601188634e487b7160e01b5f52525ffd5b939f9361028391929d939e9f9a959a610cd1565b9e511661028f91610cd1565b9a5161029a91610cd1565b98516102a591610cd1565b945f8080809b9e9d9c9b80610243565b82346100b4575f3660031901126100b4576020905161038442048152f35b82346100b45760a0906102e536610c0e565b905f525f602052815f20905f5260205260ff815f2091825492600181015491600360028301549201549281519586526020860152840152818116606084015260081c1615156080820152f35b82346100b45760203660031901126100b457602091355f5260018252805f20549051908152f35b82346100b457602091826003193601126100b457355f526001808352815f209282518082865491828152019081965f52835f20905f5b8181106103d857505050816103a4910382610c54565b8351938285019183865251809252840194915f5b8281106103c55785870386f35b83518752958101959281019284016103b8565b825484529285019291860191860161038e565b9050346100b45760203660031901126100b457610384602092519135048152f35b82346100b45760c03660031901126100b457813590602435604435606435916084359360a4359160ff83168084036100b4578251636b74171d60e11b8152898101899052602092906001600160a01b037f0000000000000000000000000000000000000000000000000000000000000000811691908582602481865afa9182156106a1575f92610672575b503391160361066257838a60248d8851948593849263170da40760e21b84528301525afa908115610658575f9161062b575b501561061b576104d98888610cd1565b86036105fb5742811161060b5781156105fb57610384900498885f525f8352835f208a5f52835260ff6003855f20015460081c166105ed57509160016105e894928796948a60ff60038e8d7f9c7eb12c260a372d992c3fac3e67638b078629021eeb714d5a90594daa4031449e9d89519261055384610c24565b8c84528884019182528a84019283526060840197885260808401968a88525f525f89528a5f20905f528852895f209251835551888301555160028201550192511661ff0083549251151560081b169161ffff191617179055895f52526105bb89825f20610d1e565b51948594429386919360809360ff9297969560a08501988552602085015260408401521660608201520152565b0390a3005b83516324bf796160e11b8152fd5b835163162908e360e11b81528a90fd5b835163b7d0949760e01b81528a90fd5b835163179a70ab60e11b81528a90fd5b61064b9150843d8611610651575b6106438183610c54565b810190610c95565b8b6104c9565b503d610639565b85513d5f823e3d90fd5b84516314db440560e31b81528b90fd5b610693919250863d881161069a575b61068b8183610c54565b810190610c76565b908d610497565b503d610681565b87513d5f823e3d90fd5b82346100b45760a0906106bd36610c0e565b906106c6610d4a565b505f525f602052815f20905f52602052805f2060ff82516106e681610c24565b82549384825260018401549360208301948552600360028201549183850192835201549484608060608601958289168752019660081c161515865282519687525160208701525190850152511660608301525115156080820152f35b82346100b45760c03660031901126100b45767ffffffffffffffff82356024358281116100b4576107769036908601610bdd565b6044949194358481116100b4576107909036908801610bdd565b6064959195358281116100b4576107aa9036908a01610bdd565b946084358481116100b4576107c29036908c01610bdd565b93909460a4359081116100b4576107dc9036908d01610bdd565b8351636b74171d60e11b8152808e018b9052919790917f00000000000000000000000000000000000000000000000000000000000000006001600160a01b031690602081602481855afa908115610b9257908f915f91610b73575b50336001600160a01b0390911603610b65578b60246020928851948593849263170da40760e21b84528301525afa908115610658575f91610b46575b5015610b365782811480610b2d575b80610b24575b80610b1b575b15610ae0575f5b81811061089e57005b6108a981858e610cad565b356108cb6108b8838d8a610cad565b356108c4848b8d610cad565b3590610cd1565b03610ad0578c6108dd82844293610cad565b3511610ac05760ff806108f96108f484878e610cad565b610cf2565b1615610ab05790878c8f8f8c8f8f928b8e91898f9760019c8f918f846109229161038493610cad565b35049b8b5f525f6020528a5f208d5f52602052600390818c5f2001549b8360089d8e1c16610a9c57858f9a8f7f9c7eb12c260a372d992c3fac3e67638b078629021eeb714d5a90594daa4031449f8f9b8f9b610a929f8f90610a649f986108f49f610a4f978f94610a5d9f9c8c9f998f610a569f8f9c8f6108f48f8f9d8f610a4a9f61ff00986109c6856109d4986109bf8280966109cd98610cad565b359f610cad565b359e610cad565b3598610cad565b958951906109e182610c24565b81526020810198895289810195865282606082019716875260808101956001998a8852895f525f6020528b5f208d5f526020528b5f2092518355518a8301555160028201550194511691845493511515901b169161ffff1916171790555f526020525f20610d1e565b610cad565b359a610cad565b3599610cad565b3597610cad565b8d51948594429386919360809360ff9297969560a08501988552602085015260408401521660608201520152565b0390a35b01610895565b505050505050505050505050505050610a96565b855163162908e360e11b81528f90fd5b845163b7d0949760e01b81528e90fd5b845163162908e360e11b81528e90fd5b835162461bcd60e51b81526020818f01526015602482015274082e4e4c2f240d8cadccee8d040dad2e6dac2e8c6d605b1b6044820152606490fd5b5081811461088e565b50858114610888565b50888114610882565b835163179a70ab60e11b81528d90fd5b610b5f915060203d602011610651576106438183610c54565b8e610873565b85516314db440560e31b8152fd5b610b8c915060203d60201161069a5761068b8183610c54565b5f610837565b86513d5f823e3d90fd5b346100b4575f3660031901126100b4577f00000000000000000000000000000000000000000000000000000000000000006001600160a01b03168152602090f35b9181601f840112156100b45782359167ffffffffffffffff83116100b4576020808501948460051b0101116100b457565b60409060031901126100b4576004359060243590565b60a0810190811067ffffffffffffffff821117610c4057604052565b634e487b7160e01b5f52604160045260245ffd5b90601f8019910116810190811067ffffffffffffffff821117610c4057604052565b908160209103126100b457516001600160a01b03811681036100b45790565b908160209103126100b4575180151581036100b45790565b9190811015610cbd5760051b0190565b634e487b7160e01b5f52603260045260245ffd5b91908201809211610cde57565b634e487b7160e01b5f52601160045260245ffd5b3560ff811681036100b45790565b8115610d0a570490565b634e487b7160e01b5f52601260045260245ffd5b80549068010000000000000000821015610c405760018201808255821015610cbd575f5260205f200155565b60405190610d5782610c24565b5f608083828152826020820152826040820152826060820152015256fea264697066735822122067133a09ea75b82c9eecba6be43604b2705ce7feafc5ca0f3d276316ef68366164736f6c634300081800330000000000000000000000002bd8abeb2f5598f8477560c70c742affc22912de",
        "nonce": "0x2",
        "chainId": "0x138b"
      },
      "additionalContracts": [],
      "isFixedGasLimit": false
    },
    {
      "hash": "0x5250ea05b4bea58e503b6f3390535cec72f9f518dd5b664928f347e644f065d4",
      "transactionType": "CALL",
      "contractName": "MerchantRegistry",
      "contractAddress": "0x2bd8abeb2f5598f8477560c70c742affc22912de",
      "function": "register(bytes32,string,string)",
      "arguments": [
        "0x2656351973460bed76c490c9f68544c55766ecb607108c75b7838f91320fdd62",
        "Bodega Don Pepe",
        "Miraflores, Lima"
      ],
      "transaction": {
        "from": "0x3b0eb4bd67d7243a4dbe684e9c922d9c3919afbf",
        "to": "0x2bd8abeb2f5598f8477560c70c742affc22912de",
        "gas": "0x7ca33a8",
        "value": "0x0",
        "input": "0x58fd6aec2656351973460bed76c490c9f68544c55766ecb607108c75b7838f91320fdd62000000000000000000000000000000000000000000000000000000000000006000000000000000000000000000000000000000000000000000000000000000a0000000000000000000000000000000000000000000000000000000000000000f426f6465676120446f6e2050657065000000000000000000000000000000000000000000000000000000000000000000000000000000000000000000000000104d697261666c6f7265732c204c696d6100000000000000000000000000000000",
        "nonce": "0x3",
        "chainId": "0x138b"
      },
      "additionalContracts": [],
      "isFixedGasLimit": false
    },
    {
      "hash": "0x7b4197e3849f1d6c654f36d24b12255e6a87fba96d08277d63d3fc6d594cfc6d",
      "transactionType": "CALL",
      "contractName": "MerchantRegistry",
      "contractAddress": "0x2bd8abeb2f5598f8477560c70c742affc22912de",
      "function": "register(bytes32,string,string)",
      "arguments": [
        "0x2af4dce4d5c460d05f4f97082fe9d3291b9979f151fc62338f248640ad5048ef",
        "Minimarket El Sol",
        "San Isidro, Lima"
      ],
      "transaction": {
        "from": "0x3b0eb4bd67d7243a4dbe684e9c922d9c3919afbf",
        "to": "0x2bd8abeb2f5598f8477560c70c742affc22912de",
        "gas": "0x7cee91c",
        "value": "0x0",
        "input": "0x58fd6aec2af4dce4d5c460d05f4f97082fe9d3291b9979f151fc62338f248640ad5048ef000000000000000000000000000000000000000000000000000000000000006000000000000000000000000000000000000000000000000000000000000000a000000000000000000000000000000000000000000000000000000000000000114d696e696d61726b657420456c20536f6c000000000000000000000000000000000000000000000000000000000000000000000000000000000000000000001053616e2049736964726f2c204c696d6100000000000000000000000000000000",
        "nonce": "0x4",
        "chainId": "0x138b"
      },
      "additionalContracts": [],
      "isFixedGasLimit": false
    },
    {
      "hash": "0xcab89a9762b0d30f5b37b2151e543262e821aaf95a644b1dd46edaffdd287699",
      "transactionType": "CALL",
      "contractName": "MerchantRegistry",
      "contractAddress": "0x2bd8abeb2f5598f8477560c70c742affc22912de",
      "function": "register(bytes32,string,string)",
      "arguments": [
        "0xec96807dd5076540cc85a99f4d3b497cff2935c1e5a11fe4cebefc9f950e0abb",
        "Bodega La Esquina",
        "Barranco, Lima"
      ],
      "transaction": {
        "from": "0x3b0eb4bd67d7243a4dbe684e9c922d9c3919afbf",
        "to": "0x2bd8abeb2f5598f8477560c70c742affc22912de",
        "gas": "0x7ca33a8",
        "value": "0x0",
        "input": "0x58fd6aecec96807dd5076540cc85a99f4d3b497cff2935c1e5a11fe4cebefc9f950e0abb000000000000000000000000000000000000000000000000000000000000006000000000000000000000000000000000000000000000000000000000000000a00000000000000000000000000000000000000000000000000000000000000011426f64656761204c612045737175696e61000000000000000000000000000000000000000000000000000000000000000000000000000000000000000000000e42617272616e636f2c204c696d61000000000000000000000000000000000000",
        "nonce": "0x5",
        "chainId": "0x138b"
      },
      "additionalContracts": [],
      "isFixedGasLimit": false
    },
    {
      "hash": "0x64b942c1b1b1c937d5e171dfaaa7468687bee0b0a79b6eddcd592472e086d6eb",
      "transactionType": "CALL",
      "contractName": "SalesEventLog",
      "contractAddress": "0x7007508b1420e719d7a7a69b98765f60c7aae759",
      "function": "recordSales(bytes32,uint256,uint256,uint256,uint256,uint8)",
      "arguments": [
        "0x2656351973460bed76c490c9f68544c55766ecb607108c75b7838f91320fdd62",
        "1768279853",
        "5000",
        "3000",
        "2000",
        "8"
      ],
      "transaction": {
        "from": "0x3b0eb4bd67d7243a4dbe684e9c922d9c3919afbf",
        "to": "0x7007508b1420e719d7a7a69b98765f60c7aae759",
        "gas": "0x778952c",
        "value": "0x0",
        "input": "0x522028d12656351973460bed76c490c9f68544c55766ecb607108c75b7838f91320fdd62000000000000000000000000000000000000000000000000000000006965cf2d00000000000000000000000000000000000000000000000000000000000013880000000000000000000000000000000000000000000000000000000000000bb800000000000000000000000000000000000000000000000000000000000007d00000000000000000000000000000000000000000000000000000000000000008",
        "nonce": "0x6",
        "chainId": "0x138b"
      },
      "additionalContracts": [],
      "isFixedGasLimit": false
    },
    {
      "hash": "0x6737b5513f3157695d9fd887a37cd35e831770408fe387bc02844f8a369a1ee3",
      "transactionType": "CALL",
      "contractName": "SalesEventLog",
      "contractAddress": "0x7007508b1420e719d7a7a69b98765f60c7aae759",
      "function": "recordSales(bytes32,uint256,uint256,uint256,uint256,uint8)",
      "arguments": [
        "0x2656351973460bed76c490c9f68544c55766ecb607108c75b7838f91320fdd62",
        "1768278953",
        "3500",
        "2100",
        "1400",
        "6"
      ],
      "transaction": {
        "from": "0x3b0eb4bd67d7243a4dbe684e9c922d9c3919afbf",
        "to": "0x7007508b1420e719d7a7a69b98765f60c7aae759",
        "gas": "0x778952c",
        "value": "0x0",
        "input": "0x522028d12656351973460bed76c490c9f68544c55766ecb607108c75b7838f91320fdd62000000000000000000000000000000000000000000000000000000006965cba90000000000000000000000000000000000000000000000000000000000000dac000000000000000000000000000000000000000000000000000000000000083400000000000000000000000000000000000000000000000000000000000005780000000000000000000000000000000000000000000000000000000000000006",
        "nonce": "0x7",
        "chainId": "0x138b"
      },
      "additionalContracts": [],
      "isFixedGasLimit": false
    },
    {
      "hash": "0xb4221da380797de81d6ff60327efea371f8e6d1ab4fcbe76d75fb73436c1d64e",
      "transactionType": "CALL",
      "contractName": "SalesEventLog",
      "contractAddress": "0x7007508b1420e719d7a7a69b98765f60c7aae759",
      "function": "recordSales(bytes32,uint256,uint256,uint256,uint256,uint8)",
      "arguments": [
        "0x2656351973460bed76c490c9f68544c55766ecb607108c75b7838f91320fdd62",
        "1768278053",
        "4200",
        "2520",
        "1680",
        "7"
      ],
      "transaction": {
        "from": "0x3b0eb4bd67d7243a4dbe684e9c922d9c3919afbf",
        "to": "0x7007508b1420e719d7a7a69b98765f60c7aae759",
        "gas": "0x778952c",
        "value": "0x0",
        "input": "0x522028d12656351973460bed76c490c9f68544c55766ecb607108c75b7838f91320fdd62000000000000000000000000000000000000000000000000000000006965c825000000000000000000000000000000000000000000000000000000000000106800000000000000000000000000000000000000000000000000000000000009d800000000000000000000000000000000000000000000000000000000000006900000000000000000000000000000000000000000000000000000000000000007",
        "nonce": "0x8",
        "chainId": "0x138b"
      },
      "additionalContracts": [],
      "isFixedGasLimit": false
    }
  ],
  "receipts": [
    {
      "status": "0x1",
      "cumulativeGasUsed": "0x9ed63188",
      "logs": [],
      "logsBloom": "0x00000000000000000000000000000000000000000000000000000000000000000000000000000000000000000000000000000000000000000000000000000000000000000000000000000000000000000000000000000000000000000000000000000000000000000000000000000000000000000000000000000000000000000000000000000000000000000000000000000000000000000000000000000000000000000000000000000000000000000000000000000000000000000000000000000000000000000000000000000000000000000000000000000000000000000000000000000000000000000000000000000000000000000000000000000000",
      "type": "0x0",
      "transactionHash": "0x467d7fa0d03a95d23258e0ef1e34095a64b5c48cc99ba94f843a3c16113ebc33",
      "transactionIndex": "0x1",
      "blockHash": "0x496be833e85fe27fd83ae995915043e1aba71d13e3178a170f47940c3e1fb0ed",
      "blockNumber": "0x1fd262d",
      "gasUsed": "0x9ed57a6b",
      "effectiveGasPrice": "0x132b3a0",
      "from": "0x3b0eb4bd67d7243a4dbe684e9c922d9c3919afbf",
      "to": null,
      "contractAddress": "0x2bd8abeb2f5598f8477560c70c742affc22912de",
      "l1Fee": "0x6cabb63d5db6c",
      "l1FeeScalar": "0.01",
      "l1GasPrice": "0x3e99e67a",
      "l1GasUsed": "0xd960",
      "tokenRatio": "0xcc7"
    },
    {
      "status": "0x1",
      "cumulativeGasUsed": "0xa3be51f2",
      "logs": [],
      "logsBloom": "0x00000000000000000000000000000000000000000000000000000000000000000000000000000000000000000000000000000000000000000000000000000000000000000000000000000000000000000000000000000000000000000000000000000000000000000000000000000000000000000000000000000000000000000000000000000000000000000000000000000000000000000000000000000000000000000000000000000000000000000000000000000000000000000000000000000000000000000000000000000000000000000000000000000000000000000000000000000000000000000000000000000000000000000000000000000000",
      "type": "0x0",
      "transactionHash": "0x3d7bb3ab0d3d16ede4a0bed20fb4d72422581d3ec9631e30e65ac05118044290",
      "transactionIndex": "0x1",
      "blockHash": "0xa9d430e1e735a324bbee8893fa318946522c75b52fec604ad68f15c035821dc2",
      "blockNumber": "0x1fd262f",
      "gasUsed": "0xa3bd5809",
      "effectiveGasPrice": "0x132b3a0",
      "from": "0x3b0eb4bd67d7243a4dbe684e9c922d9c3919afbf",
      "to": null,
      "contractAddress": "0x7007508b1420e719d7a7a69b98765f60c7aae759",
      "l1Fee": "0x6d55fb6a81ac7",
      "l1FeeScalar": "0.01",
      "l1GasPrice": "0x3c0b8a92",
      "l1GasUsed": "0xe404",
      "tokenRatio": "0xcc7"
    },
    {
      "status": "0x1",
      "cumulativeGasUsed": "0x28883fb5",
      "logs": [
        {
          "address": "0x2bd8abeb2f5598f8477560c70c742affc22912de",
          "topics": [
            "0x436e347c0cc090393751f40276457d92bde6682f11111701ad943a6ec006f97b",
            "0x2656351973460bed76c490c9f68544c55766ecb607108c75b7838f91320fdd62",
            "0x0000000000000000000000003b0eb4bd67d7243a4dbe684e9c922d9c3919afbf"
          ],
          "data": "0x000000000000000000000000000000000000000000000000000000000000006000000000000000000000000000000000000000000000000000000000000000a0000000000000000000000000000000000000000000000000000000006965cf43000000000000000000000000000000000000000000000000000000000000000f426f6465676120446f6e2050657065000000000000000000000000000000000000000000000000000000000000000000000000000000000000000000000000104d697261666c6f7265732c204c696d6100000000000000000000000000000000",
          "blockHash": "0x6ec87b4a9e275c9efc9e0c094af696e9a5a5e264313c1fcb900e471047388f05",
          "blockNumber": "0x1fd2631",
          "blockTimestamp": "0x6965cf43",
          "transactionHash": "0x5250ea05b4bea58e503b6f3390535cec72f9f518dd5b664928f347e644f065d4",
          "transactionIndex": "0x1",
          "logIndex": "0x0",
          "removed": false
        }
      ],
      "logsBloom": "0x00000000000000000000000000000000000000000000000000000000000000000800000000000000000000000000000000000000000000000000000000000000000000000000000000000000000000000000000000000000000000000000000000000000000000000000000000100000000020000000000000000000000020000000000000000000000000000000000000000000000000000000000000000000000000000000000000000000000000400000000000400000000000500020000004000000000000000000000002000000000000000000000000000000000000000000000000000002000000000000000000000000000000000000000000000000",
      "type": "0x0",
      "transactionHash": "0x5250ea05b4bea58e503b6f3390535cec72f9f518dd5b664928f347e644f065d4",
      "transactionIndex": "0x1",
      "blockHash": "0x6ec87b4a9e275c9efc9e0c094af696e9a5a5e264313c1fcb900e471047388f05",
      "blockNumber": "0x1fd2631",
      "gasUsed": "0x28878898",
      "effectiveGasPrice": "0x132b3a0",
      "from": "0x3b0eb4bd67d7243a4dbe684e9c922d9c3919afbf",
      "to": "0x2bd8abeb2f5598f8477560c70c742affc22912de",
      "contractAddress": null,
      "l1Fee": "0x6dced19793cb",
      "l1FeeScalar": "0.01",
      "l1GasPrice": "0x3c0b8a92",
      "l1GasUsed": "0xe50",
      "tokenRatio": "0xcc7"
    },
    {
      "status": "0x1",
      "cumulativeGasUsed": "0x252dfe54",
      "logs": [
        {
          "address": "0x2bd8abeb2f5598f8477560c70c742affc22912de",
          "topics": [
            "0x436e347c0cc090393751f40276457d92bde6682f11111701ad943a6ec006f97b",
            "0x2af4dce4d5c460d05f4f97082fe9d3291b9979f151fc62338f248640ad5048ef",
            "0x0000000000000000000000003b0eb4bd67d7243a4dbe684e9c922d9c3919afbf"
          ],
          "data": "0x000000000000000000000000000000000000000000000000000000000000006000000000000000000000000000000000000000000000000000000000000000a0000000000000000000000000000000000000000000000000000000006965cf4900000000000000000000000000000000000000000000000000000000000000114d696e696d61726b657420456c20536f6c000000000000000000000000000000000000000000000000000000000000000000000000000000000000000000001053616e2049736964726f2c204c696d6100000000000000000000000000000000",
          "blockHash": "0xa94211f80b4a14e5ac7c99a0a476f4521487202e328ad27ffee5ba0a07b7b9f7",
          "blockNumber": "0x1fd2634",
          "blockTimestamp": "0x6965cf49",
          "transactionHash": "0x7b4197e3849f1d6c654f36d24b12255e6a87fba96d08277d63d3fc6d594cfc6d",
          "transactionIndex": "0x1",
          "logIndex": "0x0",
          "removed": false
        }
      ],
      "logsBloom": "0x00000000000000000000000000000000000000000000000000000000000000000800000000000000000000000000000000000000000000000000000000000000000010000000000000000000000000000000000000000010000000000000000000000000000000000000000000100000000020000000000000000000000020000000000000000000000000000000000000000000000000000000000000000000000000000000000000000000000000400000000000400000000000400000000000000000000000000000000002000000000000000000000000000000000000000000000400000002000000000000000000000000000000000000000000000000",
      "type": "0x0",
      "transactionHash": "0x7b4197e3849f1d6c654f36d24b12255e6a87fba96d08277d63d3fc6d594cfc6d",
      "transactionIndex": "0x1",
      "blockHash": "0xa94211f80b4a14e5ac7c99a0a476f4521487202e328ad27ffee5ba0a07b7b9f7",
      "blockNumber": "0x1fd2634",
      "gasUsed": "0x252d2673",
      "effectiveGasPrice": "0x132b3a0",
      "from": "0x3b0eb4bd67d7243a4dbe684e9c922d9c3919afbf",
      "to": "0x2bd8abeb2f5598f8477560c70c742affc22912de",
      "contractAddress": null,
      "l1Fee": "0x667ebafa0e4d",
      "l1FeeScalar": "0.01",
      "l1GasPrice": "0x37ae7a24",
      "l1GasUsed": "0xe68",
      "tokenRatio": "0xcc7"
    },
    {
      "status": "0x1",
      "cumulativeGasUsed": "0x252bd343",
      "logs": [
        {
          "address": "0x2bd8abeb2f5598f8477560c70c742affc22912de",
          "topics": [
            "0x436e347c0cc090393751f40276457d92bde6682f11111701ad943a6ec006f97b",
            "0xec96807dd5076540cc85a99f4d3b497cff2935c1e5a11fe4cebefc9f950e0abb",
            "0x0000000000000000000000003b0eb4bd67d7243a4dbe684e9c922d9c3919afbf"
          ],
          "data": "0x000000000000000000000000000000000000000000000000000000000000006000000000000000000000000000000000000000000000000000000000000000a0000000000000000000000000000000000000000000000000000000006965cf4d0000000000000000000000000000000000000000000000000000000000000011426f64656761204c612045737175696e61000000000000000000000000000000000000000000000000000000000000000000000000000000000000000000000e42617272616e636f2c204c696d61000000000000000000000000000000000000",
          "blockHash": "0xf66c1560db8a8ea06935cd30dfdd409899f1665a064610b4018c04de261372d9",
          "blockNumber": "0x1fd2636",
          "blockTimestamp": "0x6965cf4d",
          "transactionHash": "0xcab89a9762b0d30f5b37b2151e543262e821aaf95a644b1dd46edaffdd287699",
          "transactionIndex": "0x1",
          "logIndex": "0x0",
          "removed": false
        }
      ],
      "logsBloom": "0x00000000000000000000000000000000000000000000000000000000000000000800000000000000000000000000000000000000000000000000000000000000000000000000000000000000000000000000000000000000000000000000000000000000000000000000000000100000000020000000000000000000000020000000000000000000000000004000000000000000000000000001000000000000000000000000000000000000000000400000000000400004000000400000000000000000000000000000000002000000000000000000000000000000000000000000000000000002000000000000000000000000000000000000000000000000",
      "type": "0x0",
      "transactionHash": "0xcab89a9762b0d30f5b37b2151e543262e821aaf95a644b1dd46edaffdd287699",
      "transactionIndex": "0x1",
      "blockHash": "0xf66c1560db8a8ea06935cd30dfdd409899f1665a064610b4018c04de261372d9",
      "blockNumber": "0x1fd2636",
      "gasUsed": "0x252b1c26",
      "effectiveGasPrice": "0x132b3a0",
      "from": "0x3b0eb4bd67d7243a4dbe684e9c922d9c3919afbf",
      "to": "0x2bd8abeb2f5598f8477560c70c742affc22912de",
      "contractAddress": null,
      "l1Fee": "0x657e9a9bfcf3",
      "l1FeeScalar": "0.01",
      "l1GasPrice": "0x37ae7a24",
      "l1GasUsed": "0xe44",
      "tokenRatio": "0xcc7"
    },
    {
      "status": "0x1",
      "cumulativeGasUsed": "0x20fe545d",
      "logs": [
        {
          "address": "0x7007508b1420e719d7a7a69b98765f60c7aae759",
          "topics": [
            "0x9c7eb12c260a372d992c3fac3e67638b078629021eeb714d5a90594daa403144",
            "0x2656351973460bed76c490c9f68544c55766ecb607108c75b7838f91320fdd62",
            "0x00000000000000000000000000000000000000000000000000000000001dfad3"
          ],
          "data": "0x00000000000000000000000000000000000000000000000000000000000013880000000000000000000000000000000000000000000000000000000000000bb800000000000000000000000000000000000000000000000000000000000007d00000000000000000000000000000000000000000000000000000000000000008000000000000000000000000000000000000000000000000000000006965cf51",
          "blockHash": "0x927116854c57501f4ffc6c7c0adf2ff6cf4e89aeff858b2ef02aa0d50afd6263",
          "blockNumber": "0x1fd2638",
          "blockTimestamp": "0x6965cf51",
          "transactionHash": "0x64b942c1b1b1c937d5e171dfaaa7468687bee0b0a79b6eddcd592472e086d6eb",
          "transactionIndex": "0x1",
          "logIndex": "0x0",
          "removed": false
        }
      ],
      "logsBloom": "0x00000000000000000000000000200000000000000000000000000000000004000000000000000000000000000010000000000000000000000000000000000000000000000000000000000000000000000000000000000000000000000000000000000000008000000000000000000000000000000000000000000000200000000000000000000000000000040000000000000000000000000000000000000000000000000000000000000000000000000000000000000000000000100020000004000000000000000000000000000000000000000400000000000000000000000000000000024000000000000000000000000000000000000000000000000000",
      "type": "0x0",
      "transactionHash": "0x64b942c1b1b1c937d5e171dfaaa7468687bee0b0a79b6eddcd592472e086d6eb",
      "transactionIndex": "0x1",
      "blockHash": "0x927116854c57501f4ffc6c7c0adf2ff6cf4e89aeff858b2ef02aa0d50afd6263",
      "blockNumber": "0x1fd2638",
      "gasUsed": "0x20fd9d40",
      "effectiveGasPrice": "0x132b3a0",
      "from": "0x3b0eb4bd67d7243a4dbe684e9c922d9c3919afbf",
      "to": "0x7007508b1420e719d7a7a69b98765f60c7aae759",
      "contractAddress": null,
      "l1Fee": "0x5a444bd1abf8",
      "l1FeeScalar": "0.01",
      "l1GasPrice": "0x37ae7a24",
      "l1GasUsed": "0xcb0",
      "tokenRatio": "0xcc7"
    },
    {
      "status": "0x1",
      "cumulativeGasUsed": "0x1db26b14",
      "logs": [
        {
          "address": "0x7007508b1420e719d7a7a69b98765f60c7aae759",
          "topics": [
            "0x9c7eb12c260a372d992c3fac3e67638b078629021eeb714d5a90594daa403144",
            "0x2656351973460bed76c490c9f68544c55766ecb607108c75b7838f91320fdd62",
            "0x00000000000000000000000000000000000000000000000000000000001dfad2"
          ],
          "data": "0x0000000000000000000000000000000000000000000000000000000000000dac000000000000000000000000000000000000000000000000000000000000083400000000000000000000000000000000000000000000000000000000000005780000000000000000000000000000000000000000000000000000000000000006000000000000000000000000000000000000000000000000000000006965cf55",
          "blockHash": "0x036653afeac1533b5ba592c9423dcf860e28b298f1499d5eaaf2b22e2837854d",
          "blockNumber": "0x1fd263a",
          "blockTimestamp": "0x6965cf55",
          "transactionHash": "0x6737b5513f3157695d9fd887a37cd35e831770408fe387bc02844f8a369a1ee3",
          "transactionIndex": "0x1",
          "logIndex": "0x0",
          "removed": false
        }
      ],
      "logsBloom": "0x00000000000000000000000000200000000000000000000000000000200004000000000000000000000000000000000000000000000000000000000000000000000000000000000000000000000000000000000000000000000000000000000000000000008000000000000000000000000000000000000000000000200000000000000000000000000000000000000000000000000000000000000000000000000000000080000000000000000000000000000000000000000000100020000004000000000000000000000000000000000080000400000000000000000000000000000000020000000000000000000000000000000000000000000000000000",
      "type": "0x0",
      "transactionHash": "0x6737b5513f3157695d9fd887a37cd35e831770408fe387bc02844f8a369a1ee3",
      "transactionIndex": "0x1",
      "blockHash": "0x036653afeac1533b5ba592c9423dcf860e28b298f1499d5eaaf2b22e2837854d",
      "blockNumber": "0x1fd263a",
      "gasUsed": "0x1db1933f",
      "effectiveGasPrice": "0x132b3a0",
      "from": "0x3b0eb4bd67d7243a4dbe684e9c922d9c3919afbf",
      "to": "0x7007508b1420e719d7a7a69b98765f60c7aae759",
      "contractAddress": null,
      "l1Fee": "0x658c746cb6ad",
      "l1FeeScalar": "0.01",
      "l1GasPrice": "0x3ea40da7",
      "l1GasUsed": "0xcb0",
      "tokenRatio": "0xcc7"
    },
    {
      "status": "0x1",
      "cumulativeGasUsed": "0x1db24726",
      "logs": [
        {
          "address": "0x7007508b1420e719d7a7a69b98765f60c7aae759",
          "topics": [
            "0x9c7eb12c260a372d992c3fac3e67638b078629021eeb714d5a90594daa403144",
            "0x2656351973460bed76c490c9f68544c55766ecb607108c75b7838f91320fdd62",
            "0x00000000000000000000000000000000000000000000000000000000001dfad1"
          ],
          "data": "0x000000000000000000000000000000000000000000000000000000000000106800000000000000000000000000000000000000000000000000000000000009d800000000000000000000000000000000000000000000000000000000000006900000000000000000000000000000000000000000000000000000000000000007000000000000000000000000000000000000000000000000000000006965cf59",
          "blockHash": "0xada48eff2832ec7249a67b0cfdff7e01769affcf177aab79acbfc6c3b43abbd4",
          "blockNumber": "0x1fd263c",
          "blockTimestamp": "0x6965cf59",
          "transactionHash": "0xb4221da380797de81d6ff60327efea371f8e6d1ab4fcbe76d75fb73436c1d64e",
          "transactionIndex": "0x1",
          "logIndex": "0x0",
          "removed": false
        }
      ],
      "logsBloom": "0x00000000000000000000000000200000000000000000000000000000000004000000000000000000000000000000000000000000000040000000000000000000000000000000000000000000000000000000000000000000000000000000000000000000008000000000000000000000000000000000000000000000200000000000000000000000000000000000000000000000000000000000000000000000000000000000000000000000000000000000000000000000000000100020000004004000000000010000000000000000000000000400000000000000000000000000000000020000000000000000000000000000000000000000000000000000",
      "type": "0x0",
      "transactionHash": "0xb4221da380797de81d6ff60327efea371f8e6d1ab4fcbe76d75fb73436c1d64e",
      "transactionIndex": "0x1",
      "blockHash": "0xada48eff2832ec7249a67b0cfdff7e01769affcf177aab79acbfc6c3b43abbd4",
      "blockNumber": "0x1fd263c",
      "gasUsed": "0x1db19015",
      "effectiveGasPrice": "0x132b3a0",
      "from": "0x3b0eb4bd67d7243a4dbe684e9c922d9c3919afbf",
      "to": "0x7007508b1420e719d7a7a69b98765f60c7aae759",
      "contractAddress": null,
      "l1Fee": "0x658c746cb6ad",
      "l1FeeScalar": "0.01",
      "l1GasPrice": "0x3ea40da7",
      "l1GasUsed": "0xcb0",
      "tokenRatio": "0xcc7"
    }
  ],
  "libraries": [],
  "pending": [],
  "returns": {},
  "timestamp": 1768279898335,
  "chain": 5003,
  "commit": null
}